:040000000C94550007
:100004000C9400000C9400000C9400000C9400006C
:100014000C9400000C9400000C9400000C9400005C
:100024000C9400000C9400000C9400000C9400004C
:100034000C9400000C9400000C9400000C94C40078
:100044000C9400000C9400000C9400000C9400002C
:100054000C9400000C9400000C9400000C9400001C
:100064000C9400000C9400000C9400000C9400000C
:100074000C9400000C9400000C9400000C940000FC
:100084000C9400000C94000000FF000C00003F06DC
:100094005B4F666D7D077F6F060004008C000A00CD
:1000A400000592000000F894EE27ECBBF1E0F5BFE8
:1000B400E5BFE0936C008DE0A2E0BB27ED938A9549
:1000C400E9F780E090E1A0E0B1E0ED930197E9F772
:1000D400ECE9F0E085919591009761F0A591B591D7
:1000E40005901590BF01F00105900D920197E1F77D
:1000F400FB01F0CF8BBFEFEFEDBFE0E1EEBFC0E05F
:10010400D5E00C948500E0EFE7BBE1BBEFE0E093C2
:100114006400EFEFE4BB55BAE1E0E7BFE7E0E3BF1B
:10012400E2EBE2BF789402D0FECFFFCFE8E0E093A9
:10013400650032D03AD030D041D0E1E08E16E8F3F9
:100144008824E4E0E093650040D02FD03ED036D040
:10015400E1E08E16E8F38824E2E0E09365003ED007
:1001640024D03CD02BD0E1E08E16E8F38824E09331
:1001740065003DD01AD03BD021D0E1E08E16E8F3E3
:1001840088240895EA93EFB7EA938394E2EBE2BFFD
:10019400E991EFBFE9911895A62DBB27EAE0F0E0BD
:1001A4004BD0E050FB4FE0810895EF70E295E07F83
:1001B400AE2FE2B3EF70EA2BE2BB0895E077AE2FE7
:1001C400E8B3EF70EA2BE8BB0895A62DB0E0EAE0AF
:1001D400F0E02DD0E050FB4FE0810895A72DBB2720
:1001E400EAE0F0E029D0E050FB4FE0810895A72D2C
:1001F400B0E0EAE0F0E01BD0E050FB4FE08108956E
:10020400F195E195F04008950024112490E1AA0F9E
:10021400BB1F001C111C0E1A1F0A18F40E0E1F1E01
:1002240001C0A1609A9599F7FD01D001089512D0FB
:10023400EBDF0EF4E5DF0895E894B7FF04C0B19551
:10024400A195B0406894F7FDDBDFDEDFFD010EF41D
:10025400D7DF0895E894F7FF02C0D2DF6894B7FFB0
:1002640006C0B195A195B04000F8039400FA089532
:00000001FF
