:0C0000000C945F000C9400000C940000B5
:10000C000C9400000C9400000C94DB010C94DE01A9
:10001C000C94E1010C94E4010C9400000C94E701A5
:10002C000C9400000C94F8010C9400000C9400004B
:10003C000C9400000C94EF010C9400000C94000044
:10004C000C9400000C9400000C9400000C94000024
:10005C000C9400000C9400000C9400000C94FB0118
:10006C000C9400000C9400000C9400000C94000004
:10007C000C9400000C9400000C9400000C940000F4
:10008C00000000000000000000003F065B4F666DA2
:10009C007D077F6FBF86DBCFE6EDFD87FFEF0A00A4
:1000AC0004008C000A00040596000A000E05A0004E
:1000BC000000F894EE27ECBBF1E0F5BFE5BFE09350
:1000CC006C008DE0A2E0BB27ED938A95E9F780E008
:1000DC0090E1A0E0B1E0ED930197E9F7EAEAF0E0F6
:1000EC0085919591009761F0A591B591059015902A
:1000FC00BF01F00105900D920197E1F7FB01F0CFE4
:10010C008BBFEFEFEDBFE0E1EEBFC0E0D5E00C94AC
:10011C008F00EFEFE4BBEEEFE5BBE0EFE7BBE1BB3D
:10012C00EFE0E0936400139AE1E0E7BFE5E0E3BFA2
:10013C00E3E8E2BFE0E0EBB9E8E0EAB9E6E0E0933F
:10014C009500E0E0E0939000E7E6E9B9E0EFE9BF65
:10015C00EFEFEABF789410E0113448F4E1E0EA9351
:10016C00E9E0EA93EA93A7E074D01F5FF5CF10E0C3
:10017C00113418F448D11F5FFBCFE5E5E5BB10E067
:10018C00113418F440D11F5FFBCFE1E0E81521F5E5
:10019C00D7D010E01A30F8F4E9E9E5BBE7E0E7B9AD
:1001AC00E7ECE6B9349BFECF35D1E0930005F09334
:1001BC0001057724E1E0E91558F0E3EB7E1610F029
:1001CC0093947724A0910005B091010566D0F2CFED
:1001DC0099241F5FDFCF8824E1E0EB15F1F4B8D050
:1001EC00E6E0E7B9E7E8E6B910E01530A8F4E6E692
:1001FC00E5BBE7ECE6B9349BFECF0CD1E0930205EE
:10020C00F0930305A0910205B091030576D0442428
:10021C004420F1F31F5FE9CFBB24E1E0EA1551F470
:10022C00A8D0AA2410E0143628F4E7E7E5BBB9D02F
:10023C001F5FF9CFE1E0ED1551F4A0D0DD2410E003
:10024C00143628F4E7E7E5BBACD01F5FF9CF95CFA8
:10025C00FFCFE9D0F3D0E12FFDD002D108D11ED1D0
:10026C0023D1E32F2DD10AC0DED01ED1E12F28D10E
:10027C00F7D0FDD013D1E2D0E32FECD0AE2F26D1A6
:10028C0090D0E1E0E0936500E22FF0E00DD1E22F99
:10029C0017D1E6D078D1279608951DD1E0E0F0E093
:1002AC006AE774E436D1E8E0E0936500EE81FF8103
:1002BC00FBD0EE81FF814CD109D1E4E0E0936500E5
:1002CC00E885F985F1D0E885F98542D1E8B3EF707E
:1002DC00EA2BE8BBC79A65D0E2E0E09365003ED11B
:1002EC00EF70E295E07FAE2FE2B3EF70EA2BE2BB4A
:1002FC0035D1E077AE2FEAD020C0EDD0E0E0F0E0D1
:10030C0068EC72E406D1405D5F4FE885F985F096A4
:10031C00E887F987EE81FF81F096EE83FF83A42FA7
:10032C006BD0AEE269D0A88567D0AE8165D0A6E56A
:10033C0063D05D9BFECFEDE0ECB923D160960895C0
:10034C00E7B7E064E7BFE5E0E5BDEDE3E4BD0895A4
:10035C00E7B7E061E7BFE0E0EFBDEDE0EEBDE0E068
:10036C00E0937A00EDBDECBDE8E9EBBDE6E9EABD52
:10037C000895E2E8E0938B00ECE004C0E2E8E0933F
:10038C008B00E4E0E0938A00E0E0E0938C00E093E3
:10039C008900E0938800E0938700E0E8E093860012
:1003AC00089555245520F1F30895DED08E2E1FC0EC
:1003BC00DBD0BE2E1CC0D8D0AE2E19C0D5D0DE2EB0
:1003CC0016C0EA93EFB7EA93EDE3E4BDF8947394A7
:1003DC000EC0EA93EFB7EA93F894E0E0E2BFE1E0F5
:1003EC005E2E05C0C1D04E2E02C0BED06E2E7894AB
:1003FC00E991EFBFE99118951A931A2F5D9BFECFE7
:10040C001CB919910895E1E0EA93EA93E2E0EA93CA
:10041C00A5E02ACFE4B1F0E0DF01E5B1FE2FE0E08A
:10042C00EA0FFB1F0895A8D01A2F0C813D812E8155
:10043C00E8E0E0936500E12FF0E00895E25FFA4F09
:10044C00E081EF70E295E07FAE2FE2B3EF70EA2B24
:10045C00E2BB0895F0E0E25FFA4FE081E07F08959F
:10046C00AE2FE8B3EF70EA2BE8BB9BDF9ACFE4E04A
:10047C00E0936500E02FF0E0EC5FFA4FE081EF7065
:10048C00E295E07FAE2FE2B3EF70EA2BE2BBE02FF8
:10049C00F0E0EC5FFA4FE081E077E2CFE2E0E0934E
:1004AC006500E32FF0E00895EC5FFA4FE081EF7008
:1004BC00E295E07FAE2FE2B3EF70EA2BE2BB08953A
:1004CC00F0E0EC5FFA4FE081E0770895E8B3EF706D
:1004DC00EA2BE8BB66CFBA93AA9328974BD0EE854C
:1004EC00FF8566277727D8D0A0E0B0E080EA90E4BB
:1004FC0055D1DF01CB01E0E0F0E060E874E49CD181
:10050C00EA87FB876C877D87AA85BB858C859D8553
:10051C00089544D1A0E0B0E080E09FE3F0D083D018
:10052C008F01D801E4E6F0E03BD0AF01D801E4E65E
:10053C00F0E049D09F01D901EAE0F0E031D0E88742
:10054C00F987D901EAE0F0E03ED0EE83FF8308950D
:10055C00EC5FFA4FE081E077AE2F0895A4E0B5E0B0
:10056C00A40FB51FEC910895EA93EFB7EA93F894B2
:10057C00E1E008955A934A933A932A931A930A9373
:10058C0008955D814C813B812A81198108810895F0
:10059C00F09560957095E195FF4F6F4F7F4F0895E3
:1005AC000024112490E1AA0FBB1F001C111C0E1A71
:1005BC001F0A18F40E0E1F1E01C0A1609A9599F720
:1005CC00FD01D0010895ECDFFD010895552342F49F
:1005DC00503811F4E0FF04C03196691F791F6BF09D
:1005EC0050E8572711F45F93C8C05F3F31F0660F96
:1005FC00000C57956795752F08955F9300200AF0AE
:10060C00C7C0C0C050E8192E1522880F991F952716
:10061C00550F879550E8072E0522660F771F752713
:10062C00550F67950895689401C0E8945F93F2DFC5
:10063C00703818F07F3F08F4A0C056E1571BAAF49D
:10064C00519558300EF4593030F0EFEFFFEF6FEF5B
:10065C007FE777F91AC077275523B9F0EE0FFF1F04
:10066C00661F771F5A95D1F710C07727583028F09E
:10067C00EF2FF62F672F5850F9CF552331F0769581
:10068C006795F795E7955A95D1F700200AF480DF26
:10069C005F910895689401C0E89430976040704071
:1006AC00B1F0002426F0772312F4009471DF172E9A
:1006BC007EE1112032F07A95EE0FFF1F661F111CA0
:1006CC00F9CFEF2FF62F612D5F938ADF5F9108959D
:1006DC004F93AF01FD01DA01AB01BC01CA01402D02
:1006EC00012C142E4F910895EA0FFB1F681F0895DB
:1006FC00E095F0956095EF5FFF4F6F4F08955F9316
:10070C0081DF903839F1703821F1572F591B2BF1BB
:10071C0012F4DEDFFACF583118F0AA27BB2788274E
:10072C00583028F0AB2FB82F88275850F9CF5523C5
:10073C0029F08695B795A7955A95D9F7502D51253F
:10074C0072F0D2DF38F46795F795E795739513F44B
:10075C001FC0BEDF45DF5F910895D8F7FBCFEA1BC2
:10076C00FB0B680B51F010F40094C2DF662392F37C
:10077C00EE0FFF1F661F7A95CBF7EE27FF27BF0101
:10078C005F910895EFEFFFEF6FE77FEF5F910895B3
:10079C00EFEFFFEF6FE77FE75F9108955F9332DF35
:1007AC00703859F3903849F301240894791F23F4D5
:1007BC0024F300203AF3ECCF0F921F932F933F9327
:1007CC004F93112722279927689FA0018F9F302DC7
:1007DC00410D591F6B9F300D411D591F8E9F27D006
:1007EC00BF9F25D06A9F23D0BE9F1DD0AF9F1BD02B
:1007FC00AE9F110D291F391F491F591FE32FF42FCD
:10080C00652F522F4F913F912F911F910F9066237F
:10081C002AF0550FEE1FFF1F661F02C073954BF297
:10082C00D5DE5F910895100D211D391F02C0200DDA
:10083C00311D491F591F08955F93E4DE703821F470
:10084C0011200AF49FCFA4CF903809F496CF01243D
:10085C000894970B1BF4D4F30020F3CF792F1F933C
:10086C002F933F934F931124112722273327A9014C
:10087C0090E2AE17BF078607410730F0AE1BBF0BE7
:10088C00860B410B089401C08894551F221F331FFF
:10089C00111CAA1FBB1F881F441F9A9551F7F90101
:1008AC00612D4F913F912F911F91662332F0550F7F
:1008BC00EE1FFF1F661F7A954BF288DE5F9108953D
:00000001FF
