:0E0000000C944B000C9400000C9400000C9427
:10000E0000000C9400000C9400000C9400000C9462
:10001E0000000C9400000C9400000C9400000C9452
:10002E0000000C9400000C9400000C9400000C9442
:10003E0000000C9400000C9400000C9400000C9432
:10004E0000000C9400000C9400000C9400000C9422
:10005E0000000C9400000C9400000C9400000C9412
:10006E0000000C9400000C9400000C9400000C9402
:10007E0000000C9400000C9400000C9400003F064D
:10008E005B4F666D7D077F6FF894EE27ECBBF1E05A
:10009E00F5BFE5BFE0936C008DE0A2E0BB27ED93CA
:1000AE008A95E9F780E090E1A0E0B1E0ED93019749
:1000BE00E9F78BBFEFEFEDBFE0E1EEBFC0E0D5E0BB
:1000CE000C946900E0EFE7BBE1BBEFE0E093640066
:1000DE00E7E0E7B9E7E8E6B9A5E0B0E06FD2E7EC14
:1000EE00E6B9349BFECFE4B1F0E0DF01E5B1FE2FBF
:1000FE00E0E0EA0FFB1F8F01D80102D0F0CFFFCF57
:10010E00BA93AA93259785D0EB85FC856F2F660F42
:10011E00660B762F3FD1A0E0B0E080EA90E4BCD130
:10012E00DF01CB01E0E0F0E060E874E403D2EF839E
:10013E00F88769877A87AF81B88589859A85E0E0E7
:10014E00F0E068EC72E4A8D1A0E0B0E080E09FE3BC
:10015E0054D1E9D08F0136D0E4E6F0E094D05E2F92
:10016E00D801E4E6F0E094D09F012CD0EAE0F0E074
:10017E008AD04E2FF90126D0EAE0F0E089D0EE8346
:10018E00E8E0E093650023D028D021D02FD0A1E065
:10019E00B0E014D2E4E0E09365002FD01ED02DD055
:1001AE0025D0C79AA1E0B0E009D2E2E0E093650065
:1001BE002AD013D028D01AD0A1E0B0E0FFD130D091
:1001CE002D960895AAE0B0E046D0DF010895EE81A5
:1001DE00F0E0E457FF4FE4910895EF70E295E07F71
:1001EE00AE2FE2B3EF70EA2BE2BB0895E077AE2FAD
:1001FE00E8B3EF70EA2BE8BB0895E42FF0E0E45784
:10020E00FF4FE4910895E52FF0E0E457FF4FE4919E
:10021E0008955A934A933A932A931A930A930895F8
:10022E005D814C813B812A81198108810895F19568
:10023E00E195F0400895F09560957095E195FF4F2A
:10024E006F4F7F4F0895FA9FF02DEB9FF00DEA9FB1
:10025E00E02DF10D08952AD0F6DF0EF4E8DF0895B3
:10026E000024112490E1AA0FBB1F001C111C0E1AB2
:10027E001F0A18F40E0E1F1E01C0A1609A9599F761
:10028E00FD01D001089512D0EBDF0EF4D0DF0895FA
:10029E00E894B7FF04C0B195A195B0406894F7FDFE
:1002AE00C6DFDEDFFD010EF4C2DF0895E894F7FF2E
:1002BE0002C0BDDF6894B7FF06C0B195A195B040EE
:1002CE0000F8039400FA0895552342F4503811F4BF
:1002DE00E0FF04C03196691F791F6BF050E8572775
:1002EE0011F45F93C8C05F3F31F0660F000C579555
:1002FE006795752F08955F9300200AF0C7C0C0C0A0
:10030E0050E8192E1522880F991F9527550F87959E
:10031E0050E8072E0522660F771F7527550F679534
:10032E000895689401C0E8945F93F2DF703818F076
:10033E007F3F08F4A0C056E1571BAAF451955830E0
:10034E000EF4593030F0EFEFFFEF6FEF7FE777F9F4
:10035E001AC077275523B9F0EE0FFF1F661F771FC0
:10036E005A95D1F710C07727583028F0EF2FF62F77
:10037E00672F5850F9CF552331F076956795F7953D
:10038E00E7955A95D1F700200AF455DF5F9108954D
:10039E00689401C0E894309760407040B1F000243A
:1003AE0026F0772312F4009446DF172E7EE11120FB
:1003BE0032F07A95EE0FFF1F661F111CF9CFEF2F4B
:1003CE00F62F612D5F938ADF5F9108954F93AF01F2
:1003DE00FD01DA01AB01BC01CA01402D012C142E26
:1003EE004F910895EA0FFB1F681F0895E095F09551
:1003FE006095EF5FFF4F6F4F08955F9381DF9038E9
:10040E0039F1703821F1572F591B2BF112F4DEDF21
:10041E00FACF583118F0AA27BB278827583028F072
:10042E00AB2FB82F88275850F9CF552329F0869532
:10043E00B795A7955A95D9F7502D512572F0D2DF61
:10044E0038F46795F795E795739513F41FC0BEDFE3
:10045E0045DF5F910895D8F7FBCFEA1BFB0B680BC6
:10046E0051F010F40094C2DF662392F3EE0FFF1FDB
:10047E00661F7A95CBF7EE27FF27BF015F91089590
:10048E00EFEFFFEF6FE77FEF5F910895EFEFFFEF75
:10049E006FE77FE75F9108955F9332DF703859F30E
:1004AE00903849F301240894791F23F424F3002093
:1004BE003AF3ECCF0F921F932F933F934F93112745
:1004CE0022279927689FA0018F9F302D410D591F1C
:1004DE006B9F300D411D591F8E9F27D0BF9F25D07A
:1004EE006A9F23D0BE9F1DD0AF9F1BD0AE9F110D14
:1004FE00291F391F491F591FE32FF42F652F522F24
:10050E004F913F912F911F910F9066232AF0550F17
:10051E00EE1FFF1F661F02C073954BF2D5DE5F9173
:10052E000895100D211D391F02C0200D311D491FC8
:10053E00591F08955F93E4DE703821F411200AF4F8
:10054E009FCFA4CF903809F496CF01240894970B2F
:10055E001BF4D4F30020F3CF792F1F932F933F93E7
:10056E004F931124112722273327A90190E2AE17AA
:10057E00BF078607410730F0AE1BBF0B860B410B42
:10058E00089401C08894551F221F331F111CAA1FE7
:10059E00BB1F881F441F9A9551F7F901612D4F918A
:1005AE003F912F911F91662332F0550FEE1FFF1FC3
:1005BE00661F7A954BF288DE5F910895109639F09A
:1005CE00A89580EA9FE00197F1F71197C9F7089572
:00000001FF
