:020000000C945E
:1000020054000C9400000C9400000C9400000C941A
:1000120000000C94C6000C9420010C9400000C9477
:1000220000000C9400000C9400000C9400000C944E
:1000320000000C9400000C9400000C9400000C943E
:1000420000000C9400000C9400000C9400000C942E
:1000520000000C9400000C9400000C9400000C941E
:1000620000000C9400000C9400000C9400000C940E
:1000720000000C9400000C9400000C9400000C94FE
:1000820000000C9400000C9400000C0000003F06DD
:100092005B4F666D7D077F6F040008008C000A00CD
:1000A200000590000000F894EE27ECBBF1E0F5BFEC
:1000B200E5BFE0936C008DE0A2E0BB27ED938A954B
:1000C200E9F780E090E1A0E0B1E0ED930197E9F774
:1000D200EAE9F0E085919591009761F0A591B591DB
:1000E20005901590BF01F00105900D920197E1F77F
:1000F200FB01F0CF8BBFEFEFEDBFE0E1EEBFC0E061
:10010200D5E00C948400E0EFE7BBE1BBEFE0E093C5
:100112006400E0E3E9BFEAE0EABFE0E8EFBF10E035
:10012200113318F415D01F5FFBCFA394ECE3EA154B
:1001320069F4AA24B394EB1549F4BB24E82DF0E04A
:100142003196DF01E8E1F0E0F3D08E2EE8CFFFCF69
:10015200E8E0E093650083D08BD081D092D0E4E0D8
:10016200E093650097D084D095D08BD0E2E0E09305
:10017200650099D07DD097D084D0E1E0E09365000E
:100182009BD076D099D07DD008950A921A929A93F4
:10019200AA93BA93EA93FA93EFB7EA93AB2D95D069
:1001A2005E2EAB2D97D04E2EA82D8FD07E2EA82D51
:1001B20091D06E2E992021F4E52D91D05E2E2AC089
:1001C200E1E0E91549F4E42DF0E03196DF01E6E0E3
:1001D200F0E0AED04E2E1EC0E2E0E91549F4E6157D
:1001E20019F4E72D83D002C0E72D79D07E2E12C0FC
:1001F200E4E07E1640F4E62DF0E03196DF01E3E024
:10020200F0E096D006C0E62DF0E03196A1E0B0E035
:100212009DD06E2EE62DAAE0EA02F001E70D8E2EA9
:10022200E42DEA02F001E50DBE2EE991EFBFF9914E
:10023200E991B991A9919991199009901895AA9368
:10024200BA93EA93FA93EFB7EA93E92D4FD09E2E31
:10025200E991EFBFF991E991B991A9911895AB2D67
:10026200BB27EAE0F0E064D0E050FB4FE081089564
:10027200EF70E295E07FAE2FE2B3EF70EA2BE2BBC4
:100282000895E077AE2FE8B3EF70EA2BE8BBA5E064
:10029200B0E074C0AB2DB0E0EAE0F0E044D0E05052
:1002A200FB4FE0810895A82DBB27EAE0F0E040D0A3
:1002B200E050FB4FE0810895A82DB0E0EAE0F0E0C5
:1002C20032D0E050FB4FE0810895BB27EAE0F0E036
:1002D2002FD00895B0E0EAE0F0E025D00895F0E0F4
:1002E2003196DF01EAE0F0E023D00895F0E03196A4
:1002F200A3E0B0E02BD00895F195E195F040089588
:100302000024112490E1AA0FBB1F001C111C0E1A1D
:100312001F0A18F40E0E1F1E01C0A1609A9599F7CC
:10032200FD01D00108951CD0EBDF0EF4E5DF089546
:10033200E894B7FF04C0B195A195B0406894F7FD69
:10034200DBDFDEDFFD010EF4D7DF0895E894F7FF6F
:1003520002C0D2DF6894EA23FB230EF4CDDF0895B6
:10036200E894F7FF02C0C8DF6894B7FF06C0B195F2
:10037200A195B04000F8039400FA0895109639F060
:10038200A89580EA9FE00197F1F71197C9F70895C0
:00000001FF
