:060000000C944E000C946C
:1000060000000C9400000C9400000C9400000C946A
:1000160000000C9400000C9400000C9400000C945A
:1000260000000C9400000C9400000C9400000C944A
:1000360000000C9400000C9400000C9400000C943A
:1000460000000C9400000C9400000C9400000C942A
:1000560000000C9400000C9400000C9400000C941A
:1000660000000C9400000C9400000C9400000C940A
:1000760000000C9400000C9400000C9400000C94FA
:1000860000000C940000FEFDFBF7EFDFBF7F0800C9
:1000960000058C000000F894EE27ECBBF1E0F5BFFC
:1000A600E5BFE0936C008DE0A2E0BB27ED938A9557
:1000B600E9F780E090E1A0E0B1E0ED930197E9F780
:1000C600E4E9F0E085919591009761F0A591B591ED
:1000D60005901590BF01F00105900D920197E1F78B
:1000E600FB01F0CF8BBFEFEFEDBFE0E1EEBFC0E06D
:1000F600D5E00C947E002397E0E0E883EFEFE4BBC5
:10010600E0E0E2B950D0E1B1E0711E2FE1B1E0725A
:100116000E2FE1B1E0743E2FE1B1E0782E2FE1B170
:10012600E0715E2FE1B1E0724E2FE1B1E074EA8337
:10013600E1B1E078E983103011F0503009F008C0E1
:10014600E881F0E03196A7E0B0E038D0E8832BD024
:10015600152F003011F0403009F00DC0E881E03075
:1001660011F4E7E006C0E881F0E03197A7E0B0E0DF
:1001760025D0E88318D0042F303019F4AA81A03096
:1001860009F403C0E0E0E5BBE8833A81203019F4C6
:10019600A981A03009F404C0EFEFE5BBE0E0E883F5
:1001A6002981BDCFFFCFE881F0E0E050FB4FE08131
:1001B600E5BB0895F195E195F0400895E894F7FFC1
:1001C60002C0F8DF6894EA23FB230EF4F3DF0895F8
:00000001FF
