:020000000C945E
:1000020055000C9400000C9400000C9400000C9419
:1000120000000C9400000C9400000C9400000C945E
:1000220000000C9400000C9400000C9400000C944E
:1000320000000C9400000C9400000C9400000C943E
:1000420000000C9400000C9400000C9400000C942E
:1000520000000C9400000C9400000C9400000C941E
:1000620000000C9400000C9400000C9400000C940E
:1000720000000C9400000C9400000C9400000C94FE
:1000820000000C9400000C940000A1A05555000043
:1000920000000000F00FAA5577000A0004008C004F
:1000A2000500000596000000F894EE27ECBBF1E095
:1000B200F5BFE5BFE0936C008DE0A2E0BB27ED93B6
:1000C2008A95E9F780E090E1A0E0B1E0ED93019735
:1000D200E9F7ECE9F0E085919591009761F0A5913F
:1000E200B59105901590BF01F00105900D92019711
:1000F200E1F7FB01F0CF8BBFEFEFEDBFE0E1EEBF29
:10010200C0E0D5E00C948500EFEFE4BBE0E0E2B99B
:10011200889A899AE1B1E07F1E2FE1B1E07F0E2F2C
:10012200103F11F4003E09F001C01AD0103F11F443
:10013200003D09F001C019D0103F11F4003B09F055
:1001420001C08CD0103F11F4003709F006C09AD0DC
:10015200CA14DB0411F4E6E6E5BB102FDECFFFCFB5
:10016200AED0A62D1CD061D07DC01A9310E0A7D0CE
:1001720010E0153058F4AAD0A08111D056D0A6D0E4
:10018200E081F0E0AE0EBF1E1F5FF3CF95C0919AE3
:10019200A2D0A9D072C091989ED0919A6EC0B6D0CA
:1001A2003A2F032F10E0173060F4E02FE078E038A8
:1001B20011F4919A01C091988ED09AD0000F1F5FCE
:1001C200F2CFE02FE078E03811F4919A01C09198D3
:1001D20082D08ED0E02FE078E03809F4919880E266
:1001E2008A95F1F798D0249608951A930A9300E01D
:1001F2009924899810E01830A8F4909A80E28A95A0
:10020200F1F776D0819902C0E0E001C0E0E80E2F5C
:10021200E12FA02F85D00E2F902A80E28A95F1F748
:100222001F5FE9CF0991199108951A9310E08998F7
:10023200909A1AE0113048F0819903C011E0EEEF74
:1002420001C0EFE0E5BB1150F5CF80E28A95F1F7EE
:100252009098899A80E28A95F1F72FC030D04DD0DC
:10026200C4DF02D098DF0895899A919A02C0899AD0
:100272003AD0909A80E48A95F1F7909880E28A9534
:10028200F1F708951A931BD038D010E0143058F4C7
:10029200ACDF37D09082EBDF34D0E081F0E0CE0EDD
:1002A200DF1E1F5FF3CFA1DF90920905DDDFE09132
:1002B2000905F0E0CE0EDF1E6EDF1991089567DFAB
:1002C200A52D6DDFB2DFA72D6ADFAFCFE12FF0E002
:1002D200E050FB4F089580E28A95F1F7909A80E210
:1002E2008A95F1F70895919880E28A95F1F7089539
:1002F200909880E28A95F1F7089549DFA42D4FDFA7
:1003020094CFE12FF0E0EB5FFA4F08953A932A93EE
:100312001A930A9308953B812A81198108810895CD
:10032200EE230E2EEA2F19F0E6950A94E9F70895C6
:00000001FF
