:100000000C944F000C9400000C9400000C94000021
:100010000C9400000C9400000C9400000C94000060
:100020000C9400000C9400000C9400000C94000050
:100030000C9400000C9400000C9400000C94000040
:100040000C9400000C9400000C9400000C94000030
:100050000C9400000C9400000C9400000C94000020
:100060000C9400000C9400000C9400000C94000010
:100070000C9400000C9400000C9400000C94000000
:100080000C9400000C9400000C9400003F065B4FA1
:10009000666D7D077F6F0A0000058C000000F894F4
:1000A000EE27ECBBF1E0F5BFE5BFE0936C008DE01F
:1000B000A2E0BB27ED938A95E9F780E090E1A0E00C
:1000C000B1E0ED930197E9F7E6E9F0E085919591CC
:1000D000009761F0A591B59105901590BF01F001D1
:1000E00005900D920197E1F7FB01F0CF8BBFEFEF89
:1000F000EDBFE0E1EEBFC0E0D5E00C947F0000E092
:1001000010E021E030E0E0EFE7BBE1BBEFE0E0939F
:100110006400E0E0E2B9E8BBE2BB22977ED00024B5
:100120000216030621F0A881B981109709F008C0D2
:1001300074D0E881F981309719F0D80142D0F8CF16
:1001400028813981D80113D00F5F1F4F0336E0E0BB
:100150001E071CF0D80135D0FDCF00240016010683
:100160001CF0D8012ED0FDCF2296D7CFFFCF5BD089
:100170000230E0E01E0724F585D02CF0A8D0ADD0E9
:10018000A6D0B4D002C0E0E0E2BBE8BBB5D02CF012
:10019000BFD0A3D0BDD0AAD002C0E0E0E2BBE8BB94
:1001A000BDD02CF0C7D099D0C5D0A0D002C0E0E01F
:1001B000E2BBE8BBA5E0B0E009D10F5F1F4FD8CF8D
:1001C00029C031D00230E0E01E0724F55BD02CF0CE
:1001D0007ED083D07CD08AD002C0E0E0E2BBE8BB16
:1001E0008BD02CF095D079D093D080D002C0E0E0B5
:1001F000E2BBE8BB93D02CF09DD06FD09BD076D0E3
:1002000002C0E0E0E2BBE8BBA5E0B0E0DFD00F5FFA
:100210001F4FD8CF9CD02E960895E1B1E071F0E049
:10022000E883F9830895BA93AA93269789D0AC8579
:10023000BD85E8EEF3E0A9D09F01AC85BD85E8EE71
:10024000F3E0A8D0EE83FF83AE81BF81E4E6F0E067
:100250009CD0AF01AE81BF81E4E6F0E09BD0EE839D
:10026000FF83AE81BF81EAE0F0E08FD0EA87FB87B1
:10027000AE81BF81EAE0F0E08DD0E887F98700E049
:1002800010E00895E8E0E0936500E885F985E05026
:10029000FB4FE081EF70E295E07FAE2FE2B3EF70AD
:1002A000EA2BE2BBE885F985E050FB4FE081E0777F
:1002B000AE2FE8B3EF70EA2BE8BBA5E0B0E086D044
:1002C000E4E0E0936500AC85BD851A970895EA8562
:1002D000FB85E050FB4FE0810895EF70E295E07FF1
:1002E000AE2FE2B3EF70EA2BE2BB0895E077AE2FBA
:1002F000E8B3EF70EA2B0895A5E0B0E067D0E2E044
:10030000E0936500AC85BD85A436E0E0BE070895A6
:10031000A0E0B5E0A40FB51FEC910895A5E0B0E012
:1003200055D0E1E0E0936500AC85BD85A83EE3E0F3
:10033000BE070895A0E0B5E0A20FB31FEC910895A9
:100340005A934A933A932A931A930A9308955D8194
:100350004C813B812A81198108810895F195E195AD
:10036000F04008950024112490E1AA0FBB1F001C47
:10037000111C0E1A1F0A18F40E0E1F1E01C0A160D8
:100380009A9599F7FD01D001089512D0EBDF0EF494
:10039000E5DF0895E894B7FF04C0B195A195B0409A
:1003A0006894F7FDDBDFDEDFFD010EF4D7DF089593
:1003B000E894F7FF02C0D2DF6894B7FF06C0B1959A
:1003C000A195B04000F8039400FA0895109639F012
:1003D000A89580EA9FE00197F1F71197C9F7089572
:00000001FF
