:020000000C945E
:100002004B000C9400000C9400000C9400000C9423
:1000120000000C9497000C94A2000C9400000C9425
:1000220000000C9400000C9400000C9400000C944E
:1000320000000C9400000C9400000C9400000C943E
:1000420000000C9400000C9400000C9400000C942E
:1000520000000C9400000C9400000C9400000C941E
:1000620000000C9400000C9400000C9400000C940E
:1000720000000C9400000C9400000C9400000C94FE
:1000820000000C9400000C94000000020200040026
:100092008C000000F894EE27ECBBF1E0F5BFE5BF61
:1000A200E0936C008DE0A2E0BB27ED938A95E9F71F
:1000B20080E090E1A0E0B1E0ED930197E9F7EEE88E
:1000C200F0E085919591009761F0A591B591059029
:1000D2001590BF01F00105900D920197E1F7FB0128
:1000E200F0CF8BBFEFEFEDBFE0E1EEBFC0E0D5E0B8
:1000F2000C947B00EFEFE7BBE0936400EFE0E0934A
:100102006500E0E3E9BFEAE0EABFEBE0EFBDE4E06F
:10011200EEBDE0E0E0937A00E0E0F0E0FDBDECBD92
:10012200F20120D0E0E8EFBFFFCFFFCF24D0E0EB19
:10013200F3E04E165F0620F4F201E05CFF4F2F0160
:100142000AC019D0E0E5F0E0E415F50520F4E0E49A
:10015200F0E04E1A5F0AF20105D0E991EFBFF99182
:10016200E9911895E070EF2FF0E0E0937900E42D2B
:10017200E09378000895EA93FA93EFB7EA9308952B
:00000001FF
