:020000000C945E
:1000020053000C9400000C9400000C9400000C941B
:1000120000000C9400000C9400000C9400000C945E
:1000220000000C9400000C9400000C9400000C944E
:1000320000000C9400000C9400000C9400000C943E
:1000420000000C9400000C949C000C9400000C9492
:1000520000000C9400000C9400000C9400000C941E
:1000620000000C9400000C9400000C9400000C940E
:1000720000000C9400000C9400000C9400000C94FE
:1000820000000C9400000C940000506C65617365D4
:1000920020496E7365727420746865204E756D62B6
:1000A20065720000F894EE27ECBBF1E0F5BFE5BF06
:1000B200E0936C008DE0A2E0BB27ED938A95E9F70F
:1000C20080E090E1A0E0B1E0ED930197E9F78BBF0A
:1000D200EFEFEDBFE0E1EEBFC0E0D5E00C947100C0
:1000E200699789E160E070E0ECE8F0E03BD000E085
:1000F200A8EEB3E043D0E0E0EBB9E8E9EAB9E6E024
:10010200E0939500E0E0E0939000E7E6E9B99E0114
:100112007894D901EC91E03029F02F5F3F4FAC91F8
:1001220003D0F7CFFFCFFFCF1A931A2F5D9BFECFDD
:100132001CB919910895EA93EFB7EA931A930A93B7
:100142001CB1103310F01A3308F003C0E12FEA504B
:100152000E2F5D9BFECF1CB909911991E991EFBF5A
:10016200E9911895AF93BF93DB01AC0FBD1F0590CA
:100172000D928A95E1F7BF91AF910895109639F0EB
:10018200A89580EA9FE00197F1F71197C9F70895C2
:00000001FF
