:060000000C945A010C945F
:1000060000000C9400000C9400000C9400000C946A
:1000160000000C9400000C9400000C9400000C945A
:100026003B050C9400000C9400000C9400000C940A
:1000360000000C9400000C9400000C943F050C94F6
:1000460000000C9436050C9400000C9400000C94EF
:1000560000000C9400000C9400000C9400000C941A
:1000660000000C9400000C9400000C9400000C940A
:1000760000000C9400000C9400000C9400000C94FA
:1000860000000C94000000FF0000FF00FFFF00FFCF
:100096002D2D2D2D2D2D2D2D2D2D2D2D2D2D2D2D8A
:1000A6002D2D2D2D2D2D2D2D2D2D2D2D2D2D2D00A7
:1000B6005B2055415254204578706572696D656EB6
:1000C60074205D0050726573732074686520436800
:1000D6006172203A20004C45442054657374203ADE
:1000E600204C375365672054657374203A205300BB
:1000F6004D61696E204D656E75203A204D00312E9A
:1001060020496E6372656173696E67204C454400D1
:10011600322E2044656372657365696E67204C45AF
:1001260044004D2E204D61696E204D656E754C451F
:100136004420546573742053656C6563740037738B
:10014600656720546573742053656C656374332E3C
:1001560020557020436F756E74696E67203773651E
:100166006773342E20446F776E20436F756E746903
:100176006E67203773656773352E20446973706C1C
:10018600617920796F757420494452657475726E71
:1001960020746F204D61696E204D656E75005B2081
:1001A600496E6372656173696E67204C4544205DD4
:1001B6005B2044656372656173696E67204C4544D4
:1001C600205D5B20557020436F756E74696E6720E5
:1001D6003773656773205D005B20446F776E20433D
:1001E6006F756E74696E67203773656773205D007F
:1001F6005B20446973706C617920796F7572204950
:1002060044205D00596F7572204944203A205061A0
:10021600726B4A756E686F003F065B4F666D7D07B1
:100226007F6F0A0004008C001F0000059600130073
:100236002005B60011003405CA000C004605DC0096
:100246000D005305E8000D006105F60011006F056D
:1002560004011100810516010C00930528010F0009
:10026600A00534011000B00544011400C105540175
:100276001600D60568011200ED057E011300000682
:10028600900112001406A40112002706B6011500FB
:100296003A06C80117005006DE0113006806F6018B
:1002A60013007C060A020A0090061E020000F8945B
:1002B600EE27ECBBF1E0F5BFE5BFE0936C008DE007
:1002C600A2E0BB27ED938A95E9F780E090E1A0E0F4
:1002D600B1E0ED930197E9F7E8E2F2E085919591B7
:1002E600009761F0A591B59105901590BF01F001B9
:1002F60005900D920197E1F7FB01F0CF8BBFEFEF71
:10030600EDBFE0E1EEBFC0E0D5E00C948A01E0E08D
:10031600EBB9E8E9EAB9E6E0E0939500E0E0E093BE
:100326009000E7E6E9B9EFEFE4BB55BAE1E8E7BFCD
:10033600EDE0E5BDEFEFE3BDE0E0E4BDE0EFE7BBF8
:10034600E1BBEFE0E0936400E0E3E9BFEAE0EABF87
:10035600E7E0E3BFE0E0E2BF78949DD1E1E0EC1591
:1003660009F06BC0ECE4E81519F0ECE6E81511F4B9
:10037600ECE6BE2EE3E5E81519F0E3E7E81511F41F
:10038600E3E7BE2EEDE4E81519F0EDE6E81511F405
:10039600EDE6BE2EE1E0E0939C06EB2DF0E0EC36B8
:1003A600A0E0FA07C9F4E1E0E0939A0657D356D3E2
:1003B600E0EAF5E06AD36ED311F073D3FCCF5D9B10
:1003C600FECFEDE0ECB9B5D1E4E3F5E05ED362D360
:1003D60011F067D3FCCF30C0E337A0E0FA07C9F4C9
:1003E600E1E0E0939B063AD339D3E0EBF5E04DD359
:1003F60051D311F056D3FCCF5D9BFECFEDE0ECB9A7
:10040600C7D1E4E3F5E041D345D311F04AD3FCCF9D
:1004160013C0ED36A0E0FA0779F44DD3E0E0F6E03C
:1004260034D338D311F03DD3FCCF5D9BFECF53D3ED
:1004360031D311F036D3FCCFCC24A0919C06A13049
:1004460021F4A0919A06A13009F072C0E1E0EC1502
:1004560009F04DC0E1E3E81509F4AE2EE2E3E81534
:1004660009F4AE2EEDE4E81519F0EDE6E81511F401
:10047600EDE6AE2EEA2DF0E0E133A0E0FA0771F4E6
:10048600EDD2ECD2B6D1E4E3F5E0FFD203D311F01E
:1004960008D3FCCFE1E0E0939D0628C0E233A0E05C
:1004A600FA0771F4DBD2DAD2D6D1E2E0E0939D0608
:1004B600E4E3F5E0EAD2EED211F0F3D2FCCF16C0B7
:1004C600ED36A0E0FA0791F4F6D20BD3E0939E0640
:1004D600E0E0F6E0DAD2DED211F0E3D2FCCF5D9BAB
:1004E600FECFF9D2D7D211F0DCD2FCCFCC24A0912A
:1004F6009D06A13061F4E1E0E41549F4550C5E2A4D
:10050600EFEFE51511F4EEEF5E2E55BA4424A091F7
:100516009D06A23069F4E1E0E41551F45694E0E852
:100526005E2AEFEFE51511F4EFE75E2E55BA442487
:10053600A0919C06A13021F4A0919B06A13009F060
:10054600A8C0E1E0EC1509F081C0E3E3E81509F481
:10055600DE2EE4E3E81509F4DE2EE5E3E81509F4FA
:10056600DE2EEDE4E81519F0EDE6E81511F4EDE6FA
:10057600DE2EED2DF0E0E333A0E0FA0771F46ED243
:100586006DD29BD1E4E3F5E080D284D211F089D21A
:10059600FCCFE1E0E0939E0658C0E433A0E0FA0702
:1005A60071F45CD25BD2C8D1E4E3F5E06ED272D2CC
:1005B60011F077D2FCCFE2E0E0939E0646C0E53329
:1005C600A0E0FA07B9F44AD249D2EED1ECE7F6E058
:1005D6005CD260D211F065D2FCCF40D23FD2E4E3C8
:1005E600F5E053D257D211F05CD2FCCFE3E0E093B2
:1005F6009E062BC0ED36A0E0FA0739F52FD22ED293
:10060600EFEFE5BBE0E0E2BBE8BBE1E0E0939C0690
:10061600E0E0E0939A0665D2E0939B06E0E0E09383
:100626009E061CD2E0E0F6E030D234D211F039D288
:10063600FCCF14D230D0E4E3F5E027D22BD211F070
:1006460030D2FCCFE1E0E0939C06CC24A0919E063C
:10065600A13069F4E0E09E1618F0E9E0E91508F427
:100666009924E1D1EAE06E1610F093946624A091E5
:100676009E06A23071F4E0E09E1618F0E9E0E91556
:1006860010F4E9E09E2ECFD1EAE06E1610F09A94AF
:10069600662464CEFFCFE0E0F5E0F7D1FBD111F0A0
:1006A60000D2FCCF5D9BFECFEDE0ECB9E0E2F5E0D9
:1006B600ECD1F0D111F0F5D1FCCF5D9BFECFEDE092
:1006C600ECB9E4E3F5E0E1D1E5D111F0EAD1FCCFF4
:1006D6005D9BFECFEDE0ECB9E6E4F5E0D6D1DAD1EC
:1006E60011F0DFD1FCCF5D9BFECFEDE0ECB9E3E589
:1006F600F5E0CBD1CFD111F0D4D1FCCF5D9BFECFAD
:10070600EDE0ECB9E1E6F5E0C0D1C4D111F0C9D114
:10071600FCCF5D9BFECFE9D1BDD111F0C2D1FCCF9C
:100726005D9BFECFE7D1E0E0E0939B06E0939C065D
:10073600FCC0E0E0F5E0A9D1ADD111F0B2D1FCCF1B
:100746005D9BFECFDED1A6D111F0ABD1FCCF5D9B78
:10075600FECFDCD19FD111F0A4D1FCCF5D9BFECFA3
:10076600DAD198D111F09DD1FCCF5D9BFECFBDD1E2
:1007760091D111F096D1FCCF5D9BFECFEDE0ECB9A7
:10078600CC24E1E0E0939A06E0E0E0939B06CDC03E
:10079600E0E0F5E07AD17ED111F083D1FCCF5D9B0C
:1007A600FECFBED177D111F07CD1FCCF5D9BFECFC1
:1007B600BCD170D111F075D1FCCF5D9BFECFBAD103
:1007C60069D111F06ED1FCCF5D9BFECFA4D162D171
:1007D60011F067D1FCCF5D9BFECF87D15BD111F0C5
:1007E60060D1FCCF5D9BFECF85D1E1E0E0939B0617
:1007F6009CC0E0E0F5E049D14DD111F052D1FCCFDB
:100806005D9BFECFEDE0ECB9E4E1F6E03ED142D1EE
:1008160011F047D1FCCF5D9BFECF73D13BD111F0D8
:1008260040D1FCCF5D9BFECF71D134D111F039D1CF
:10083600FCCF5D9BFECF6FD12DD111F032D1FCCF15
:100846005D9BFECF52D126D111F02BD1FCCF5D9B03
:10085600FECF75D16DC0E0E0F5E017D11BD111F0E8
:1008660020D1FCCF5D9BFECFEDE0ECB9E7E2F6E0F0
:100876000CD110D111F015D1FCCF5D9BFECF41D12B
:1008860009D111F00ED1FCCF5D9BFECF3FD102D135
:1008960011F007D1FCCF5D9BFECF3DD1FBD011F00F
:1008A60000D1FCCF5D9BFECF20D1F4D011F0F9D062
:1008B600FCCF5D9BFECF43D13BC0E0E0F5E0E5D049
:1008C600E9D011F0EED0FCCF5D9BFECFEDE0ECB9A8
:1008D600EAE3F6E0DAD0DED011F0E3D0FCCF5D9BA0
:1008E600FECF1ED1D7D011F0DCD0FCCF5D9BFECF62
:1008F6001CD1D0D011F0D5D0FCCF5D9BFECF1AD144
:10090600C9D011F0CED0FCCF5D9BFECF04D1C2D0B2
:1009160011F0C7D0FCCF5D9BFECFE7D0BBD011F066
:10092600C0D0FCCF5D9BFECFE5D0E0E0E0939D0616
:10093600E0E0E0939E060895E0E0F5E0A6D0AAD0B8
:1009460011F0AFD0FCCF5D9BFECFEDE0ECB9E0E55A
:10095600F6E09BD09FD011F0A4D0FCCF5D9BFECFDC
:10096600DFD098D011F09DD0FCCF5D9BFECFDDD0BF
:1009760091D011F096D0FCCF5D9BFECFDBD08AD014
:1009860011F08FD0FCCF5D9BFECFC5D083D011F088
:1009960088D0FCCF5D9BFECFA8D07CD011F081D053
:1009A600FCCF5D9BFECF37C0E0E0F5E06ED072D0A5
:1009B60011F077D0FCCF5D9BFECFEDE0ECB9E8E619
:1009C600F6E063D067D011F06CD0FCCF5D9BFECF14
:1009D600A7D060D011F065D0FCCF5D9BFECFA5D02F
:1009E60059D011F05ED0FCCF5D9BFECFA3D052D084
:1009F60011F057D0FCCF5D9BFECF8DD04BD011F0C0
:100A060050D0FCCF5D9BFECF70D044D011F049D0C2
:100A1600FCCF5D9BFECFEDE0ECB9E0E0E0939A06FB
:100A2600E0939D060895E8E0E09365008ED0EF70B0
:100A3600E295E07FAE2FE2B3EF70EA2BE2BB85D002
:100A4600E077AE2FE8B3EF70EA2BE8BB08951A9370
:100A56001A2F5D9BFECF1CB9199108955D9BFECFA1
:100A6600EDE0ECB9089577D08CB0E1E0CE2E08C069
:100A760072D0E1E04E2E04C06ED0E0E0E2BF639497
:100A86007894E991EFBFE9911895E0939F06F0936A
:100A9600A0060895A0919F06B091A006EC91E030C3
:100AA6000895AFE9B6E0ED91FD913196FE93EE9390
:100AB6003197A081CCCFD2DFD1DFEFEFE5BBE0E00D
:100AC600E2BBE8BBE1E0E0939C06E0E0E0939A0637
:100AD600E0939B060895EDE0ECB9DDDDE4E3F5E097
:100AE600D4CFE0E0E0939D060895EDE0ECB9E0E0B8
:100AF600F5E0CBCFEDE0ECB9CC24E0E0E0939A064C
:100B06000895EDE0ECB9EFE6F5E0BFCFEDE0ECB926
:100B1600E1E8F5E0BACFEDE0ECB9E3E9F5E0B5CF11
:100B2600EDE0ECB9E1ECF5E0B0CFEDE0ECB9E6EDE7
:100B3600F5E0ABCFEDE0ECB9EDEEF5E0A6CFEDE0FC
:100B4600ECB9E0E0E0939B060895E92DF0E0E0576C
:100B5600F94FE0810895EA93EFB7EA93F894089580
:00000001FF
